{
  "contractName": "DenToken",
  "abi": [
    {
      "constant": true,
      "inputs": [],
      "name": "totalSupply",
      "outputs": [
        {
          "name": "",
          "type": "uint256"
        }
      ],
      "payable": false,
      "stateMutability": "view",
      "type": "function"
    },
    {
      "inputs": [],
      "payable": false,
      "stateMutability": "nonpayable",
      "type": "constructor"
    }
  ],
  "bytecode": "0x608060405234801561001057600080fd5b50620f4240600081905550609e806100296000396000f300608060405260043610603f576000357c0100000000000000000000000000000000000000000000000000000000900463ffffffff16806318160ddd146044575b600080fd5b348015604f57600080fd5b506056606c565b6040518082815260200191505060405180910390f35b600054815600a165627a7a723058208fc4f3104ba70d443a216ad851a4cf04341c4585ad088972bbbb11a8788c53620029",
  "source": "pragma solidity ^0.4.2;\r\n\r\n/**\r\n * The DenToken contract does this and that...\r\n */\r\ncontract DenToken {\r\n\r\n\tuint256 public\ttotalSupply;\r\n\r\n\t// Constructor\r\n\tfunction DenToken () public {\r\n\t\ttotalSupply = 1000000;\r\n\t}\t\r\n\r\n\t//Set the total number of tokens\r\n\r\n\t//Read the total number of tokens\r\n}\r\n\r\n",
  "sourcePath": "C:\\dhawal_backup\\learn\\Blockchain\\ICO\\token_sale\\contracts\\DenToken.sol",
  "compiler": {
    "name": "solc",
    "version": "0.4.24+commit.e67f0147.Emscripten.clang"
  },
  "schemaVersion": "2.0.1",
  "updatedAt": "2018-10-20T11:33:38.203Z"
}